:020000040800F2
:1000000058890224AD02000873300008112C000842
:100010007130000885060008E93D00080000000076
:10002000000000000000000000000000ED340008A7
:10003000010700080000000075300008EF340008D8
:10004000C7020008C7020008C7020008C70200086C
:10005000C7020008C7020008C7020008C70200085C
:10006000C7020008C7020008C7020008C70200084C
:10007000C7020008C7020008C7020008C70200083C
:10008000C7020008C7020008C7020008C70200082C
:10009000C7020008C7020008C7020008C70200081C
:1000A000C7020008C7020008C7020008C70200080C
:1000B000C7020008C7020008C7020008C7020008FC
:1000C000C7020008C7020008C7020008C7020008EC
:1000D000C7020008C7020008C7020008C7020008DC
:1000E000C7020008C702000800000000C70200089D
:1000F000C7020008C7020008C7020008C7020008BC
:10010000C7020008C7020008C7020008C7020008AB
:10011000C7020008C7020008C7020008C70200089B
:10012000C7020008C7020008C7020008C70200088B
:10013000C7020008C7020008C7020008C70200087B
:1001400000000000000000000000000000000000AF
:10015000C7020008C7020008C7020008C70200085B
:10016000C7020008C7020008C7020008C70200084B
:10017000C7020008C7020008C7020008000000000C
:10018000C7020008C7020008C7020008C70200082B
:10019000C7020008C7020008C7020008C70200081B
:1001A000C7020008C7020008C7020008C70200080B
:1001B000A1320008C7020008C7020008C7020008F1
:1001C000C7020008C7020008C7020008C7020008EB
:1001D000C7020008C7020008C7020008C7020008DB
:1001E000C7020008C7020008C7020008C7020008CB
:1001F000C7020008C7020008C7020008C7020008BB
:10020000C7020008C7020008C7020008C7020008AA
:10021000C7020008C7020008C7020008C70200089A
:10022000C7020008C7020008C7020008000000005B
:10023000C7020008C702000800000000C70200084B
:10024000C7020008C7020008C7020008C70200086A
:10025000C7020008C7020008C7020008C70200085A
:10026000C7020008C7020008C7020008C70200084A
:10027000C7020008C7020008C7020008000000000B
:10028000C7020008C7020008C702000800000000FB
:1002900000000000C7020008DFF80CD000F08CF866
:1002A00000480047894100085889022406488047D1
:1002B00006480047FEE7FEE7FEE7FEE7FEE7FEE74B
:1002C000FEE7FEE7FEE7FEE7D135000899020008E9
:1002D0002DE9F05F0546002092469B46884606467B
:1002E000814640241BE0284641464746224600F00E
:1002F00053F853465A46C01A914110D31146184636
:10030000224600F03AF82D1A67EB01084F462246C4
:100310000120002100F031F817EB00094E41201EAA
:10032000A4F10104DFDC484631462A464346BDE8D5
:10033000F09F40EA01039B0703D009E008C9121FA0
:1003400008C0042AFAD203E011F8013B00F8013B8F
:10035000521EF9D27047D2B201E000F8012B491EBB
:10036000FBD270470022F6E710B513460A46044652
:100370001946FFF7F0FF204610BD202A04DB203A83
:1003800000FA02F1002070479140C2F1200320FAE8
:1003900003F3194390407047202A04DB203A21FAE6
:1003A00002F00021704721FA02F3D040C2F120028E
:1003B0009140084319467047064C074D06E0E06837
:1003C00040F0010394E8070098471034AC42F6D39C
:1003D000FFF766FF0CB600082CB600087CB5154682
:1003E0001C46020A8DF800200B0A8DF80100042239
:1003F0008DF802302A208DF80310694603F0EEFED6
:10040000280A8DF804008DF80550210A8DF8061091
:1004100004222B208DF8074001A903F0DFFE7CBDEC
:1004200070B50022044640F2BF1340F26F1110462F
:10043000FFF7D4FF0C4800214FF42135C4F3072205
:10044000E3B244184254891CA9426370F9DB06499F
:100450002C202A4603F0F2FE2A460349BDE87040EC
:100460003C2003F0EBBE0000540100242DE9F843CA
:1004700015461C460F46064600204FF0010902EBC8
:10048000D57804E018B9CAB2802A05D901202178AC
:100490000029F7D1BDE8F8834FF4B871A1EB6800EB
:1004A000B04201DA00262F44C5F5E070B842F1DB16
:1004B0000D2A0ED02B4639463046CDF8009000F07C
:1004C00067F800BF14F8011F06EB68060029DAD1AF
:1004D000E0E70026641C2F44F4E7000010B5B0F5F7
:1004E000B87F144601DB40F26F10B1F5E07F01DB0D
:1004F00040F2BF110B4601461A46FFF76FFF08484E
:10050000210A02220170014644702C2003F096FE5D
:1005100002220349BDE810403C2003F08FBE0000DA
:100520005401002470B5194C0D46491E0646401E64
:100530002260FFF7D3FF2268701E2946FFF7CEFF27
:100540002268691E3046FFF7C9FF226829463046F7
:10055000FFF7C4FF2268691E701CFFF7BFFF226807
:10056000691C701EFFF7BAFF2268701C2946FFF74E
:10057000B5FF2268691C3046FFF7B0FF691C22688E
:10058000701CBDE87040FFF7A9BF000018000024F0
:100590002DE9FF5F58071C460F468A4601D001210E
:1005A00000E000214FF4DF7BE31704EBD47504EB8C
:1005B000537001EBE0006910203A029200FB01F950
:1005C00000254CE00C2C15D0102C18D0182C18D06D
:1005D000202C1DD0302C20D03C2C42D12249029816
:1005E00001EB00104FF00008465D30061AD51F4899
:1005F00042681BE002981E4900EB400005E01D49DF
:10060000EDE702981C4900EBC00001EB8000E9E730
:1006100002981A4901EB8010E4E70298184900EBB0
:10062000C000DDE70E9828B9104882683946009866
:10063000FFF754FF76007F1C5F4512DCA7EB0A0032
:10064000A04206D100985746401C0090584508DC4F
:1006500004E008F10108B8F1080FC6DB6D1C4D4538
:10066000B0DBBDE8FF9F000090A800081400002444
:10067000A043000814480008044E0008605B00080E
:1006800020730008FEE700006FF07F4010B5FFF711
:10069000C7FE0F4C4FF47F003022B0210DA3206025
:1006A0006420FFF7E3FE4FF47F40206030220A21F0
:1006B00086200BA3FFF7DAFEFF2020601822BDE89A
:1006C0001040322008A34FF4D271FFF7CFBE0000D4
:1006D0001800002443545020544553540000000097
:1006E00052455345540000005072657373204B32DD
:1006F00020746F206E65787420706167650000005B
:10070000704772B6FEE700003EB502F0ABFA2F4C20
:1007100001220421204600F07EFA012000F04EF96B
:1007200000222046042100F076FA142000F046F959
:1007300001222046042100F06EFA322000F03EF93A
:100740009DF800109DF8010000EB012120A003F0AE
:100750004DFB00246946012220468DF8004000F040
:1007600009F901226946A4208DF8004000F002F941
:100770001620694601228DF80000802000F0FAF86A
:100780000C20694601228DF80000882000F0F2F864
:1007900002226946A32000F03DF89DF800109DF864
:1007A000010000EB01210FA003F020FB9DF80000E9
:1007B000302808D19DF80100032804D10FA043F28E
:1007C000030103F013FB00203EBD000000080258A7
:1007D0004654335836385F496E697469616C2E2E01
:1007E0002E0D0A004654335836382076656E646FF5
:1007F000722049443A307825780D0A0043686970C0
:100800002076656E646F722049443A307825780D01
:100810000A0000002DE9F04115460F46044602F09B
:10082000B7FA702002F080FA02F0F4FAE0B202F0B7
:100830007BFA02F0EFFA02F0ABFA712002F074FAE0
:1008400002F0E8FA6E1E002409E0B44201D0012053
:1008500000E0002002F036FA611C3855CCB2AC4200
:10086000F3D3BDE8F04102F0B7BA00002DE9F1473B
:100870003D4E00244FF00A0ADFF8F09081B0A04608
:100880003078401CC0B23070B0FBFAF20AFB1201A3
:1008900009B10A284CD20122022001A9FFF7BAFFB0
:1008A0009DF80400010743D000F00F0106293FD254
:1008B000FF204D4600274FF001088840C04340F01C
:1008C000C00089F8340000BF95F8341008FA04F02D
:1008D000014220D026480422694650F82400FFF740
:1008E00099FF9DF8000008229DF8011000F00F0309
:1008F000B2EB101F05EB840001EB0321C1609DF8F2
:1009000002209DF8031002F00F0201EB02210162A8
:1009100001D00762C760641CE4B2052CD4D3E86838
:100920004FF0010818B9286A08B98DF804703770BB
:100930009DF80400C0060FD199F8341048460A0605
:1009400002D521F0800105E04FF6FF72C26001F090
:10095000E001026289F834103078F02801D986F875
:1009600000A04046BDE8FC87680000242000002469
:10097000F8B500082DE9F041002516460F4604465B
:1009800002F006FA702002F0CFF902F043FAE0B26A
:1009900002F0CAF902F03EFA002408E0385D02F0E5
:1009A000C3F902F037FA050003D1641CE4B2B44283
:1009B000F4D302F011FA2846BDE8F08170B5044680
:1009C00000F034F90546601C02D004480078044465
:1009D00000F02CF9401BA042FAD370BD00000024A7
:1009E0002DE9F84F03247D4D00234FF001094FF00E
:1009F000B04B4FF00F0AE9E009FA03F73A4076D01E
:100A00000E7906F00306012E01D0022E18D1D0F87F
:100A100008C04FEA430ECE6804FA0EF82CEA080C20
:100A200006FA0EF646EA0C068660D0F804C00E7987
:100A30002CEA070CC6F300169E4046EA0C064660F8
:100A40000E79F643B6070BD0C6684FEA43088F68A5
:100A500004FA08FC26EA0C0607FA08F73743C760D1
:100A60000E7906F00306022E12D1DE080F694FEA56
:100A7000437C00EB8606B646366A4FEADC6C0AFA1F
:100A80000CF807FA0CF726EA08063743CEF8207070
:100A90000F7906684FEA430807F0030704FA08FCD9
:100AA00007FA08F726EA0C06374307604E6816F483
:100AB000403F1CD04A4E376847F00207376036681F
:100AC0009F0706F00206009623F0030606F1B046E3
:100AD000B6463F0FD6F80864DFF808810AFA07FC2B
:100AE000404526EA0C0603D14FF0000C41E06CE0D3
:100AF000DFF8F4C0604502D14FF0010C39E0DFF8B7
:100B0000ECC0604502D14FF0020C32E0DFF8E0C0EB
:100B1000604502D14FF0030C2BE0DFF8D8C06045F0
:100B200002D14FF0040C24E0DFF8CCC0604502D1C4
:100B30004FF0050C1DE0DFF8C4C0604502D14FF056
:100B4000060C16E0DFF8B8C0604502D14FF0070C84
:100B50000FE0DFF8B0C0604502D14FF0080C08E0AC
:100B6000DFF8A4C0604502D14FF0090C01E04FF05E
:100B70000A0C0CFA07FC4CEA060CCEF808C44F68C5
:100B8000DBF80060FF0226EA020600D516435F4646
:100B9000CBF80060D1F804C0DBF804605FEA8C2C6D
:100BA00026EA020600D516437E606E684F6826EA84
:100BB0000206BF0300D516436E602E684F6826EA12
:100BC0000206FF0300D516432E605B1C0A6832FA4A
:100BD00003F67FF411AFBDE8F88F000080000058E5
:100BE000F444025800000258000402580008025859
:100BF000000C025800100258001402580018025845
:100C0000001C0258002002580024025800690840C5
:100C100000D0012070470AB1816170470904FBE7E9
:100C200001480068000C70470010005C01488068B3
:100C30007047000000000024074908B50A6842F028
:100C400002020A60096801F00201009103490A6882
:100C500002430A6008BD0000F4440258040400582E
:100C600002488168027811448160704700000024C6
:100C7000032010B500F09AF801F00EFB0F4A10495E
:100C800014681368C4F3032203F00F038A5CC95C81
:100C900002F01F0201F01F01D0400A4A20FA01F1C0
:100CA0001160094908600F2000F010F808B1012018
:100CB00010BD00F03FF8002010BD0000184402589D
:100CC00090430008100000240C00002470B50D4D66
:100CD00004462878A0B14FF47A71B1FBF0F00A49CC
:100CE0000968B1FBF0F001F040FE48B9102C07D2C2
:100CF00000222146501E00F039F800206C6070BDC3
:100D0000012070BD000000240C00002428B190F8E0
:100D10003D10022903D08021816601207047042103
:100D200080F83D100068C16821F00101C160002019
:100D300070470000054808B5016841F002010160F4
:100D4000006800F00200009008BD0000F444025862
:100D5000002809DB410900F01F028900012001F190
:100D6000E0219040C1F80001704700000E4BF0B444
:100D70001B680D46C3F30223C3F10706042E00D9F6
:100D80000426191D072901D2002300E0DB1E0124DF
:100D900004FA06F19C40491E2940641E9940144003
:100DA0002143F0BC03F032B80CED00E0064900F03E
:100DB000070210B54FF6FF040868044B204040EAD4
:100DC00002201843086010BD0CED00E00000FA0599
:100DD000134970B50A68D243520705D5096801F076
:100DE0000701814213D118E00A6822F0070202438A
:100DF0000A60FFF71BFF0A4D4FF47A760446083D60
:100E000007E000BFFFF712FF001BB04201D901202D
:100E100070BD2868C0438004F4D4002070BD000079
:100E20000C4802587047000002480178491C0170C4
:100E300070470000140000242DE9F84F17468B4638
:100E40000446FFF7F3FE824694F8400001280ED0D6
:100E500001264FF0000884F8406094F84100012812
:100E600007D0022584F840802846BDE8F88F02208C
:100E7000FBE74FF00209C4F8448084F84190002257
:100E8000202153462046009702F0E6F90500E9D1FB
:100E900000225946204602F0EEF8DBF8240058B94B
:100EA0000122534602212046009702F0D5F90500A1
:100EB000D8D12168C1F80C9084F84160D2E770471E
:100EC0007047000070B504460068826801685307E7
:100ED00034D54B0332D594F84110203012290FD06D
:100EE00094F8411022291BD01EE0E16A01B3616A27
:100EF00009780170616A491C6162E16A491EE16218
:100F0000216889684907F0D40EE0A16B81B10178AE
:100F1000226B1170216B491C2163A16B491EA163D7
:100F2000216889684907F0D42046FFF7C9FF70BDE2
:100F30002068016821F480210160F5E793074FF0F4
:100F400001056CD58B036AD50221C1602068016858
:100F500021F4E021016094F84100122815D094F8A2
:100F60004100222825D094F84100022849D094F865
:100F700041000828DBD12068416921F040614161CE
:100F800084F84150606CD8B345E020680168490797
:100F900009D5016821F004010160E06B0068C168B7
:100FA00021F00101C16084F84150204600F0CCF9E5
:100FB00070BD2068016849070AD5016821F0040165
:100FC0000160E06B0068C16821F00101C16011E0BF
:100FD00020300AE0A16B69B10178226B1170216B9E
:100FE000491C2163A16B491EA1632168896811F422
:100FF0007C5FEFD184F84150204600F045F970BD88
:1010000005E084F841502046FFF70EFFF7E7204641
:10101000FFF708FFF3E72046FFF751FFEFE713075D
:1010200011D50B030FD50821C16020680168490262
:1010300005D5016821F41021016084F84150204653
:1010400000F023F9DBE7D30722D0CB0320D5C5601E
:101050002068016821F470210160606C40F002009A
:1010600060642068016849070FD5016821F0040118
:101070000160E16B0B488865E06BFFF747FE0028D5
:10108000BDD0606C40F00400606484F84150C2E759
:10109000D206B4D5C902B2D51021C160204600F0F5
:1010A000F5F8ACE71F320008F8B50446FFF7BEFDBF
:1010B00005461CB194F8410010B107E00120F8BDCD
:1010C000204600F047F841F28830A06420686FF0B5
:1010D000FF02A168036802EB012223F4F8511143D7
:1010E0000160A06C002220212B460090204602F0D7
:1010F000B3F80028E3D12268D4E907352679E168FE
:10110000176845EA0665DFF844C01943104B2943C8
:101110000025012607EA0C07394311602268D4E94B
:101120000517B4F810C0D2F804E039430EEA030EF4
:101130004EEA0C431943516021680A6842F00102EB
:101140000A60656484F84160F8BD00002FFFFF006D
:10115000FEF8E0FF2DE9F047B6B00446142130A8B0
:10116000FFF700F9C0216846FFF7FCF84049206806
:1011700088427AD1002013904FF000710446CDE9E7
:101180000010684600F03EFA08B1FFF7BAFA394895
:10119000016841F480410160006800F480403590AE
:1011A00034480C30016841F004010160016801F02D
:1011B00004013591016841F002010160016801F00C
:1011C00002013591016841F010010160016801F0F0
:1011D00010013591016841F00801016000680225A5
:1011E000032600F008003590700232AACDE93005E0
:1011F0000927214882E8D00030A9FFF7F1FB30A889
:101200004FF001084021DFF874A00A2280E8220193
:10121000CDE9336230A95046FFF7E2FB32AA4FF026
:101220000409174830A982E8D000CDE93095FFF7CE
:10123000D7FBCDF8C09030A9CDE93158CDE933675F
:101240005046FFF7CDFB280332AACDE930050D4803
:1012500030A982E8D000FFF7C3FB00225C201146D2
:10126000FFF784FD5C20FFF773FD36B0BDE8F08723
:1012700000500052D444025800080258000402589A
:1012800000100258000C0258704770477047000069
:101290002DE9F84F15460E460446FFF7C7FC94F8B3
:1012A000401082462068012900F120090ED0012754
:1012B0004FF0000884F8407094F84110012907D0DD
:1012C0005FF0020084F84080BDE8F88F0220FBE761
:1012D000C4F8448086B3122184F841100169491C86
:1012E000E1620169491CA1626662416921F04061C5
:1012F00041610EE00421204601F0AEFFC8B9606AEA
:10130000017889F80010606A401C6062E06A401E43
:10131000E062E06A53464FF0010200950028E9D1EF
:101320004FF00201204601F097FF10B92268022118
:10133000D16084F84170C5E7FFE7616C012041F09E
:1013400008016164BEE7000002484178491C417011
:10135000704700001400002410B500F057FF054945
:101360000968054AC1F30211515C01F01F01C84030
:1013700010BD00002044025890430008494930B590
:10138000484C0B1D0A68143409681D68246802F073
:101390000303C5F30012C1F30531C4F3CC040029E3
:1013A00014FB02F200EE102AF8EE400A75D03F4A14
:1013B0009FED3D1AB7EE000A6BB1DFED3D1A012B30
:1013C00001D0022B64D002EE101A1168F8EE422A06
:1013D00081EEA22A21E0334C283C23689B0612D5DB
:1013E000344B246801EE901A1168C4F3C104F8EE7E
:1013F000612AE34001EE903AC1F30801F8EE611A68
:1014000081EEA22A0BE001EE901ADFED2B2A00BF3D
:10141000F8EE611A116882EEA12AC1F3080101EE0B
:10142000901A1168F8EE611A40EE811A71EE800A86
:1014300062EE200AC1F3462101EE101AB8EE411AFD
:1014400031EE001AC0EE811ABCEEE11A80ED001AEE
:101450001168C1F3064101EE101AB8EE411A31EEDF
:10146000001AC0EE811ABCEEE11A80ED011A116873
:10147000C1F3066101EE101AB8EE411A31EE000A0E
:1014800080EE801ABCEEC10A80ED020A30BD04E095
:1014900001EE901ADFED092ABAE7002101604160F0
:1014A0008160F3E7284402580000003938440258AC
:1014B0000024744A0090D0030024744C20BCBE4B1E
:1014C000494930B5484C0B1D0A681C3409681D6831
:1014D000246802F00303C5F30022C1F30551C4F3ED
:1014E000CC04002914FB02F200EE102AF8EE400AA8
:1014F00075D03F4A9FED3D1AB7EE000A6BB1DFEDA4
:101500003D1A012B01D0022B64D002EE101A116893
:10151000F8EE422A81EEA22A21E0334C283C2368CF
:101520009B0612D5344B246801EE901A1168C4F35F
:10153000C104F8EE612AE34001EE903AC1F30801DC
:10154000F8EE611A81EEA22A0BE001EE901ADFEDAF
:101550002B2A00BFF8EE611A116882EEA12AC1F3AE
:10156000080101EE901A1168F8EE611A40EE811A36
:1015700071EE800A62EE200AC1F3462101EE101AD4
:10158000B8EE411A31EE001AC0EE811ABCEEE11A33
:1015900080ED001A1168C1F3064101EE101AB8EE91
:1015A000411A31EE001AC0EE811ABCEEE11A80ED4C
:1015B000011A1168C1F3066101EE101AB8EE411A62
:1015C00031EE000A80EE801ABCEEC10A80ED020AFC
:1015D00030BD04E001EE901ADFED092ABAE70021E0
:1015E000016041608160F3E728440258000000393F
:1015F000404402580024744A0090D0030024744CE4
:1016000020BCBE4B2DE9FE4F0546DFF8E48350F8C1
:10161000081B0024F64FC943019005F12800264617
:1016200008F12408009008011DD4A86E50B1B0F54F
:10163000801F0CD0B0F5001F0ED0B0F5401F1ED09B
:1016400001240FE0386840F40030386017E001985A
:10165000022101F02BFE03E00098022101F0B6FE0A
:1016600004000CD026462888C043C00523D4A86DAA
:1016700005281ED2DFE800F00C11161B1B00AA6E15
:10168000D8F8001021F440111143C8F80010EAE71F
:10169000386840F40030386009E00198002101F01A
:1016A00005FE03E00098002101F090FE044674B1AD
:1016B00000E0012426462888C043800528D4E86D30
:1016C00080281ED00CDC90B140280ED114E0AA6D09
:1016D000D8F8001021F007011143C8F80010EAE71C
:1016E000C02813D0B0F5807F10D001240FE03868F7
:1016F00040F40030386009E00198002101F0D6FD87
:1017000003E00098002101F061FE04469CB12646EA
:101710002888DFF8DC92C04309F12C0940052CD45D
:10172000D5F8A800B0F5800F20D00DDCA0B1B0F541
:10173000001F0FD115E0EA6DD8F8001021F4E07118
:101740001143C8F80010E3E7B0F5C00F13D0B0F5AF
:10175000000F10D001240FE0386840F400303860EA
:1017600009E00198002101F0A1FD03E000980021AB
:1017700001F02CFE04467CB126462888C0430005B3
:101780002DD4D5F8AC00B0F1007F21D00EDCA8B18B
:10179000B0F1807F10D116E0D5F8A820D9F800105C
:1017A00021F460011143C9F80010E6E7B0F1407F71
:1017B00013D0B0F1806F10D001240FE0386840F4EE
:1017C0000030386009E00198002101F06FFD03E06E
:1017D0000098002101F0FAFD044674B126462868FD
:1017E000C04380011FD4E86CD8B110280FD0202846
:1017F00012D0302815D0012414E0D5F8AC20D9F847
:10180000001021F0E0611143C9F80010E7E73868E3
:1018100040F40030386004E00198022101F046FDF8
:10182000044674B126462888C043C0042BD4286ED1
:10183000B0F5005F20D00DDCA0B1B0F5805F0FD116
:1018400015E06B48EA6C2030016821F0300111434B
:101850000160E8E7B0F5405F13D0B0F5804F10D0DD
:1018600001240FE0386840F40030386009E0019846
:10187000002101F01BFD03E00098002101F0A6FD0E
:1018800004468CB126462888C043800429D4686E5B
:10189000B0F5403F23D010DC08B3B0F5803F14D042
:1018A000B0F5003F0FD115E02A6ED8F8001021F4F2
:1018B000E0411143C8F80010E5E7B0F5802F0ED0E5
:1018C000B0F5A02F0BD001240AE00198012101F00E
:1018D000EDFC03E00098012101F078FD044694B18D
:1018E00026462888C04340042AD4D5F8B000B0F179
:1018F000405F23D010DC08B3B0F1805F14D0B0F1AA
:10190000005F0FD115E06A6ED8F8001021F4E021D5
:101910001143C8F80010E4E7B0F1804F0ED0B0F1E9
:10192000A04F0BD001240AE00198012101F0BEFC78
:1019300003E00098012101F049FD044674B12646F8
:101940002888C04300041FD4286FD8B1B0F1805F4D
:101950000ED0B0F1005F10D0012414E0D5F8B02013
:10196000D9F8001021F0E0411143C9F80010E7E771
:10197000386840F40030386004E00198012101F03B
:1019800095FC044674B126462868C043C0011ED4A5
:10199000A86CD0B101280ED0022811D0032814D091
:1019A000012413E02A6FD8F8001021F040511143B0
:1019B000C8F80010E8E7386840F40030386004E008
:1019C0000198022101F072FC0446ACB12646286859
:1019D000DFF81CB0C043ABF11C0B400252D40548E9
:1019E000016841F480710160FFF720F9824611E03F
:1019F0002C44025800480258FA48AA6C016821F0A9
:101A0000030111430160E2E7FFF710F9A0EB0A00C0
:101A1000642835D8F4480068C005F5D58CBBDFF8DC
:101A2000C4A3B5F8B4100AF1240ADAF8000001F4EE
:101A3000407100F44070884211D0DAF80010DAF8F2
:101A4000002021F4407142F48032CAF80020DAF814
:101A5000002022F48032CAF80020CAF80010D5F81D
:101A6000B400B0F5807F1AD1FFF7E0F8029012E0E1
:101A7000FFF7DCF80299411A41F2883081420AD915
:101A8000032426462878DFF85CA3C0430AF1080A3D
:101A9000C00721D03CE0DAF800008007E8D5D5F88F
:101AA000B410C1F30120032858460DD0016821F479
:101AB0007C510160B5F8B420DAF80010C2F30B02D3
:101AC0001143CAF80010DDE7C84A036802EA1112A0
:101AD00023F47C511143ECE7E86F182816D005DC9D
:101AE000A0B1082808D0102804D10AE020280DD081
:101AF00028280BD001240AE00198012101F0D6FB2F
:101B000003E00098012101F061FC044664B126461F
:101B10002878C04380071ED4A86F062819D2DFE8B2
:101B200000F0160C11161616EA6FDAF8001021F004
:101B300038011143CAF80010EAE70198012101F0C9
:101B4000B5FB03E00098012101F040FC04467CB1A4
:101B500000E0012426462878C04340071FD4D5F86A
:101B60009400062819D2DFE800F0160C111616169C
:101B7000AA6FDAF8001021F007011143CAF800102B
:101B8000E9E70198012101F091FB03E000980121B0
:101B900001F01CFC0446A4B100E00124264628788C
:101BA000C04380062BD4D5F89000B0F1405F24D01C
:101BB00011DC10B3B0F1805F15D0B0F1005F10D12F
:101BC00016E0D5F89420D9F8001021F00701114350
:101BD000C9F80010E3E7B0F1804F0ED0B0F1A04F8C
:101BE0000BD001240AE00198002101F05FFB03E023
:101BF0000098022101F0EAFB044694B126462878B9
:101C0000C04340062BD4D5F89C00B0F5406F24D0DB
:101C100011DC10B3B0F5806F15D0B0F5006F10D1A6
:101C200016E0D5F89020DAF8001021F0E0411143D9
:101C3000CAF80010E3E7B0F5805F0ED0B0F5A05F02
:101C40000BD001240AE00198002101F02FFB03E0F2
:101C50000098022101F0BAFB044694B12646287888
:101C6000C04300062BD4D5F8A000B0F5C04F24D057
:101C700011DC10B3B0F5005F15D0B0F5804F10D176
:101C800016E0D5F89C20D9F8001021F4E05111435A
:101C9000C9F80010E3E7B0F5004F0ED0B0F5204FC3
:101CA0000BD001240AE00198002101F0FFFA03E0C3
:101CB0000098022101F08AFB044654B12646287898
:101CC000C04300071ED4D5F88400B0F5805F0AD069
:101CD0000FE0D5F8A020D9F8001021F4604111439D
:101CE000C9F80010EBE70098022101F06FFB00B18A
:101CF0000126D5F88420DAF8001021F44051114370
:101D0000CAF800102878C043C00613D4D5F898004C
:101D1000B0F5807F05D10098022101F057FB00B19A
:101D20000126D5F89820D9F8001021F4407111430C
:101D3000C9F800102868C043000316D4D5F8A400E1
:101D400038B1B0F5803F09D0B0F5003F0BD0012489
:101D50000AE00198002101F0A9FA03E000980221AD
:101D600001F034FB04468CB126462868C04340038A
:101D700022D4D5F88800B0F5801F11D0B0F5001F2F
:101D800013D0B0F5401F15D0012414E0D5F8A420DD
:101D9000D9F8001021F440311143C9F80010E4E7EC
:101DA000386840F40030386004E00098012101F008
:101DB0000DFB04465CB126462868C043C00323D40B
:101DC000286DA8B1B0F5803F17D001241BE0D5F8ED
:101DD0008820DAF8001021F440111143CAF80010ED
:101DE000EAE700004C44025800480258CFFFFF00C9
:101DF000386840F40030386004E00198022101F0B6
:101E000055FA0446E4B126462868C043800005D44C
:101E10000098022101F0DAFA00B101262868C043D7
:101E200080031BD4D5F88000B0B1B0F5807F0FD00F
:101E3000B0F5007F10D0B0F5407F0DD001240CE04C
:101E40005A482A6D016821F4803111430160DBE7B3
:101E5000386840F400303860ECB326462868C04348
:101E6000C00207D46A6FD8F8001021F00041114376
:101E7000C8F800102868C043C00008D4D5F8B820BE
:101E8000DBF8001021F480411143CBF800102868E2
:101E9000C043800207D4EA6ED8F8001021F08071A8
:101EA0001143C8F800102868C04340000CD4DBF888
:101EB000001021F40041CBF80010DBF80010D5F839
:101EC000BC201143CBF800102868C04308D4374821
:101ED0006A6D016800E018E021F040511143016093
:101EE0002868C043000208D4D5F88C20DAF8001026
:101EF00021F440011143CAF8001028790024C0439E
:101F000000F0010020430AD00FE0D5F88020DAF875
:101F1000001021F440711143CAF800109EE70198A7
:101F2000002101F0C3F900B106462879C04300F052
:101F30000200204305D10198012101F0B7F900B159
:101F400006462879C04300F00400204305D10198DB
:101F5000022101F0ABF900B106462879C04300F038
:101F60000800204305D10098002101F02FFA00B1AC
:101F700006462879C04300F01000204305D10098A0
:101F8000012101F023FA00B106462879C04300F090
:101F90002000044304D10098022101F017FA00B98F
:101FA00016B10120BDE8FE8F0020FBE74C4402582B
:101FB0002DE9F05F04000F467ED0DFF83882D8F8B4
:101FC000000000F00F00B8420CD2D8F8001021F049
:101FD0000F013943C8F80010D8F8000000F00F00D6
:101FE000B84269D12078844D40070AD52069296814
:101FF00001F07001884204D9296821F07001014381
:10200000296020787C4E361D00070AD5606931684A
:1020100001F07001884204D9316821F07001014358
:1020200031602078C0060AD5A069316801F4E0610A
:10203000884204D9316821F4E0610143316020789D
:10204000DFF8B4B180060BF1080B0CD5E1695846F6
:10205000DBF8002002F07002914204D9026822F0FD
:1020600070020A430260207880070AD5E068296878
:1020700001F00F01884204D9296821F00F010143C2
:1020800029602078C0073ED05B49A26828681839CB
:1020900020F47060104328606068022818D003287C
:1020A00019D00968012819D0490700294ADADFF850
:1020B00048A1AAF1080A00E044E0DAF8002022F082
:1020C00007020243CAF80020FEF7B0FD814612E085
:1020D00009688903E9E709688901E6E7C905E4E7D2
:1020E000FEF7A4FDA0EB090141F28830814202D93C
:1020F0000320BDE8F09F6168DAF8000000F03800C6
:10210000B0EBC10FECD1207880070AD5E0682968D0
:1021100001F00F01884204D2296821F00F01014328
:102120002960D8F80010404601F00F01B9420BD9E0
:10213000016821F00F0139430160006800F00F00D1
:10214000B84201D00120D4E7207840070AD52069A1
:10215000296801F07001884204D2296821F07001D9
:1021600001432960207800070AD56069316801F0D1
:102170007001884204D2316821F07001014331605E
:102180002078C0060AD5A069316801F4E061884270
:1021900004D2316821F4E061014331602078800687
:1021A0000CD5E1695846DBF8002002F0700291423C
:1021B00004D2026822F070020A43026000F06CF858
:1021C0000E492A682B68C2F3032203F00F038A5CCE
:1021D000C95C02F01F0201F01F01D040084A20FA3A
:1021E00001F111600749086007480068BDE8F05F29
:1021F000FEF76CBD002000521844025890430008BE
:10220000100000240C0000240400002430B500F06D
:1022100043F80B4A0B490C4B15681468C5F30322AD
:1022200004F00F048A5C095D02F01F0201F01F0137
:10223000D040064A20FA01F119601060084630BD0E
:102240001844025890430008100000240C00002499
:1022500000B5FFF7DBFF05490968054AC1F3021124
:10226000515C01F01F01C84000BD00001C44025831
:102270009043000800B5FFF7C9FF05490968054A02
:10228000C1F30221515C01F01F01C84000BD0000F4
:102290001C44025890430008454970B545480968F8
:1022A000434B103B11F0380208D00111082A03D02B
:1022B000102A0BD0182A0BD0084670BD1968890661
:1022C000FBD51968C1F3C101C84070BD3A4870BD63
:1022D0003749374D18310C1D24350A6809682668BE
:1022E0002D6802F0030406F00102C1F30511C5F3E5
:1022F000CC0515FB02F200EE102AB8EE400AE9B355
:102300002F4ADFED2E0AB7EE001A6CB1DFED2D1A61
:10231000012C01D0022C43D002EE101A1068F8EE06
:10232000422A81EEA22A1EE01C68A40611D51B6871
:1023300001EE901A1168C3F3C103F8EE612AD84088
:1023400001EE900AC1F30800F8EE611A81EEA22AAC
:102350000BE001EE901ADFED1C2A00BFF8EE611AC7
:10236000106882EEA12AC0F3080001EE900AF8EE90
:10237000611A40EE201A31EE810A00E015E022EEEB
:10238000000A1068C0F34620401C00EE900AF8EEE8
:10239000600A80EE201ABCEEC10A10EE100A70BD71
:1023A00001EE901ADFED092AD8E7002070BD000089
:1023B000104402580090D00340787D01000000399D
:1023C000304402580024744A0024744C20BCBE4B94
:1023D0002DE9F05F04007DD0FF4F2078FE4D1837C7
:1023E000DFF8F493103DC00748D0D9F800003968F1
:1023F00000F03800102815D0182803D101F0030090
:1024000002280FD06068B0F5803F12D010B1B0F54F
:10241000A02F18D0286820F480302860286820F485
:10242000802009E02868800328D560680028D2D081
:1024300024E0286840F480302860606888B1FEF7A6
:10244000F5FB064609E0286840F480202860F0E7A4
:10245000FEF7ECFB801B64286FD828688003F7D553
:102460000CE0FEF7E3FB064605E000BFFEF7DEFBEF
:10247000801B6428F0D828688003F7D4207841F2C4
:102480000308D54E0C3E800769D5D9F8000039689D
:1024900010F038000ED0182801D188070AD0E06863
:1024A00090B3296821F0190101432960FEF7BEFBB2
:1024B000824631E02868400702D5E06800288AD0CB
:1024C000E168286820F0190008432860FEF7AEFB99
:1024D000824607E0DFE000BFFEF7A8FBA0EB0A00A2
:1024E0000228B9D828684007F6D500BFFEF798FB48
:1024F00040451BD82069402812D0316821F47C3136
:1025000041EA003030602AE018E000BFFEF78EFBA1
:10251000A0EB0A0002289FD828684007F6D5E5E717
:10252000306820F47C3040F40030EBE7207C3168E8
:1025300021F0FE4141EA0060E4E70DE1286820F067
:1025400001002860FEF772FB824605E0FEF76EFB95
:10255000A0EB0A0002288DD828684007F6D420781E
:10256000C0065DD5D9F80000DFF86CB2396800F01C
:102570003800ABF1040B082810D0182803D101F063
:10258000030001280AD0E0690028286838D040F00C
:1025900080002860FEF74AFB824623E02868C005D9
:1025A00023D5E069802876D11FE0206A202821D039
:1025B000316821F0F84141EA8060306030E000BFCE
:1025C00094F82010DBF8002022F07C5242EA0161EE
:1025D000CBF8001024E000BFFEF728FBA0EB0A00B8
:1025E000022898D82868C005F6D5FEF719FB4045A3
:1025F000E6D8DAE7306820F0F84040F08040DCE7C9
:1026000020F080002860FEF711FB064605E000BFC1
:10261000FEF70CFB801B02289DD82868C005F7D464
:102620002078000729D56C4861696430002980460C
:10263000016811D041F001010160FEF7F7FA06468A
:1026400005E000BFFEF7F2FA801B0228C9D8D8F8CF
:1026500000008007F6D510E021F001010160FEF7CF
:10266000E5FA064605E000BFFEF7E0FA801B022807
:1026700072D8D8F800008007F6D42078800623D5D9
:10268000A0690028286810D040F480502860FEF728
:10269000CDFA064605E036E1FEF7C8FA801B0228AF
:1026A0005AD828688004F7D50EE020F480502860BE
:1026B000FEF7BCFA064604E0FEF7B8FA801B0228D3
:1026C0004AD828688004F7D4207840074FD5DFF82F
:1026D0000C81D8F8001041F48071C8F80010FEF7A2
:1026E000A5FA064605E000BFFEF7A0FA801B6428A5
:1026F00032D8D8F80000C005F6D5374EA06860364D
:1027000001280AD008B1052813D0306820F0010054
:102710003060306820F0040002E0306840F00100D2
:102720003060A06841F2883A90B1FEF77FFA8046A7
:102730000AE0306840F004003060EEE7FEF776FA19
:10274000A0EB0801514507D830688007F6D50EE0A8
:10275000FEF76CFA804607E084E000BFFEF766FAF9
:10276000A0EB080151457DD830688007F6D4606A37
:10277000B0B3DFF86480D9F8001008F120084FF6F4
:10278000F87B08F10409C1F3C2010329A8F1040A86
:1027900069D00228286820F08070286003D0FEF7F6
:1027A00045FA044684E0FEF741FA064605E000BF1C
:1027B000FEF73CFA801B022877D828688001F7D4FE
:1027C000E26A40F2F331386854F8283F884340EA1F
:1027D00002101843386004E01044025800480258C0
:1027E000B5E0217B434622894FF4FE0C208A4FF04E
:1027F000FE474902267D521E401EA1F50071C2F31C
:1028000008088AB2761E0CEA004042EA0802024337
:10281000504607EA06610A431A60DAF8002022F0FF
:102820000102CAF80020D9F80020266A22EA0B0229
:1028300042EAC602C9F80020DAF80010A26921F0C5
:102840000C011143CAF800100168E26921F002018D
:1028500011430160016841F480310160016841F475
:10286000003101E021E027E00160016841F48021AE
:102870000160016841F001010160286840F080704A
:102880002860FEF7D3F9044605E000BFFEF7CEF955
:10289000001B022809D828688001F7D557E000BF3F
:1028A000FEF7C4F9001B022802D90320BDE8F09FFF
:1028B00028688001F4D44AE039680128D8F800007B
:1028C00021D0A26A01F0030393421CD1E26AC1F352
:1028D00005118A4217D1216BC0F30802491E8A42B2
:1028E00011D1616BC0F34622491E91420BD1A16BFD
:1028F000C0F30642491E914205D1E16BC0F3066068
:10290000491E814201D00120D0E7A16C4E46D9F882
:102910000000C0F3CC00814219D0DAF8000055461F
:1029200020F00100CAF80000FEF780F94FEA000726
:10293000FEF77CF9B842FBD0A26C306820EA0B00AD
:1029400040EAC2003060286840F0010028600020A2
:10295000ACE704284FF0E020016903D021F0040126
:102960000161704741F00401FAE7401EB0F1807F39
:1029700010B501D3012010BD4FF0E02460610F219C
:10298000601701F043FA0020A0610721216110BD0A
:1029900030B590F88410012918D0012280F88420E5
:1029A0002421C0F888100022202401680B680D68DB
:1029B00023F0005325F001050D60426601680B60AD
:1029C000C0F8884080F88420104630BD022030BD19
:1029D00070B5044690F8840001281DD0012284F8C7
:1029E00084202420C4F8880020680568026822F04A
:1029F000010202602068826822F060620A438260FD
:102A0000204600F0CBFE2268202100201560C4F88B
:102A1000881084F8840070BD022070BD70B5044633
:102A200090F8840001281DD0012284F884202420FD
:102A3000C4F8880020680568026822F0010202607C
:102A40002068826822F060420A438260204600F0DB
:102A5000A5FE2268202100201560C4F8881084F8A3
:102A6000840070BD022070BD10B5040003D0D4F8FE
:102A7000880010B107E0012010BD002084F8840018
:102A8000204600F027F82420C4F888002068016858
:102A900021F001010160A06A10B1204600F0A0FE03
:102AA000204600F081FF0128E6D02068416821F42B
:102AB000904141602068816821F02A01816020688E
:102AC000016841F0010101602046BDE8104000F0BE
:102AD000EBBE000010B5B6B00446142130A8FDF7D7
:102AE00041FCC0216846FDF73DFC1A492068884238
:102AF0002DD100201F9001210446CDE90010684629
:102B0000FEF780FD08B1FDF7FCFD1348016841F0B8
:102B100010010160006800F0100035900E48103878
:102B2000016841F00101016000680DF1C00C022153
:102B300000F0010035904FF4C06007238CE81300CB
:102B400003220648CDE9332330A9FDF749FF36B00B
:102B500010BD000000100140F0440258000002586F
:102B60002DE9F8430446D0F88800984616460D46ED
:102B7000202802D00220BDE8F883A5B19EB1002133
:102B8000C4F890102120C4F888001834FEF74EF8DD
:102B9000814654F8100CA687E6872027183CB0F52C
:102BA000805F02D003E00120E5E7206910B12E46E6
:102BB000002510E000260EE08021204601F0CAF832
:102BC000C0B9DEB116F8010B21688862B4F856006E
:102BD000401EA4F85600B4F856004B464FF00002D1
:102BE000CDF800800028E7D14FF04001204601F0E9
:102BF000B1F848B1C4F888700320BCE735F8020B7F
:102C00002168C0F30800E0E7C4F888700020B2E74C
:102C1000FEE7000070B5124C002280212046FDF72F
:102C2000FAFF022001F08AFA012220461502294605
:102C3000FDF7F1FF022001F081FA0022294620462B
:102C4000FDF7E9FF022001F079FA012220468021F8
:102C5000FDF7E1FFBDE87040022001F06FBA00000F
:102C60000004025810B5064C012211022046FDF75F
:102C7000D2FF01222046BDE810408021FDF7CBBFE6
:102C80000004025870B50E4C012280212046FDF749
:102C9000C2FF022001F052FA012220461502294605
:102CA000FDF7B9FF022001F049FA0022294620462B
:102CB000FDF7B1FFBDE87040022001F03FBA00000F
:102CC000000402582DE9F041164E00244FF480779D
:102CD00080462546394660060122040E3046FDF73F
:102CE0009AFF022001F02AFA80213046FDF78EFF7C
:102CF00008B1641CE4B2394600223046FDF78BFF70
:102D0000022001F01BFA6D1CEDB2082DE2D3B8F1E0
:102D1000000F04D0FFF77EFF2046BDE8F081FFF7EB
:102D2000B1FFF9E7000402582DE9F041174E0024E5
:102D30004FF480770546280601D5012200E00022E5
:102D400030468021FDF767FF022001F0F7F90122EC
:102D500039463046FDF75FFF022001F0EFF900220F
:102D600039463046FDF757FF072C04D10122304683
:102D70008021FDF750FF6806050E022001F0DEF904
:102D8000641CE4B2082CD6D3BDE8F08100040258DC
:102D900070B5104C012280212046FDF73CFF012236
:102DA000204615022946FDF736FF022001F0C6F93C
:102DB000002220468021FDF72EFF022001F0BEF9FF
:102DC000002229462046FDF726FFBDE8704002207C
:102DD00001F0B4B90004025810B50D4C0022802156
:102DE0002046FDF718FF022001F0A8F90122204635
:102DF0001102FDF710FF022001F0A0F90122204688
:102E00008021FDF708FFBDE81040022001F096B9CF
:102E1000000402582DE9F041164E002401222546F7
:102E200080213046FDF7F7FE022001F087F90122EC
:102E3000304617023946FDF7EEFE07E0641CE4B2A7
:102E4000FA2C03D9FFF7C8FF012508E0022001F0A2
:102E500075F980213046FDF7D9FE0028EED1002219
:102E600039463046FDF7D7FE022001F067F92846C3
:102E7000BDE8F081000402582DE9F04F87B014211D
:102E80006846FDF76FFA4E48016841F004010160A1
:102E9000016801F004010591016841F0020101603F
:102EA000016801F002010591016841F00101016032
:102EB000016801F001010591016841F01001016014
:102EC000016801F010010591016841F08001016085
:102ED000016801F080010591016841F0080101607D
:102EE00000680122DFF8DC90102100F00800059056
:102EF0004846FDF790FE002240F289114846FDF752
:102F00008AFEDFF8C4A04FF4005801224146504623
:102F1000FDF781FE002250460421FDF77CFEDFF81C
:102F2000ACB0002208215846FDF775FE0124694621
:102F300003251020CDE90004CDE902454846FDF700
:102F40004FFD1120E9010027CDE90010CDE9027500
:102F500069464846FDF744FD022603950920694667
:102F60008DE851004846FDF73BFDCDE90084CDE9F1
:102F7000024769465046FDF733FD042003958DE86E
:102F8000510069465046FDF72BFD082700974FF486
:102F900004106946CDE901045046FDF721FD009774
:102FA000694603955846CDE90146FDF719FD2020F5
:102FB000FDF742FE4020FDF73FFE07B0BDE8F08F71
:102FC000E044025800040258000802580000025869
:102FD0000C48162270B50021094BC0E9031241616B
:102FE000042481612025C161016280E83800FEF778
:102FF0005BF8002803D0BDE87040FDF782BB70BDD0
:1030000000500052740000241848002110B5164CDE
:103010000C224FF4E1330460C0E90131C160C0E922
:1030200004128161C161016241628162FFF71CFD8E
:1030300008B1FDF766FB0D480021FFF7EFFC08B172
:10304000FDF75FFB09480021FFF7C2FC08B1FDF75F
:1030500058FB0648FFF79CFC002803D0BDE8104051
:10306000FDF74FBB10BD000000100140C000002460
:10307000FEE7FEE770472DE9F0434B6A4FF04065ED
:103080002BB1AA4203D004688B6A5B1E23618B6953
:10309000002B68D00C6AB4B303688C68DC61CC691F
:1030A000FCB1D1E90B38D1F824C04E6B8F8A43EACA
:1030B000080346EA0C0633430E6A43EA8743D1E924
:1030C000037C43EA0C0333438E693B430F6823437D
:1030D000046833433B4365E0006849688161BDE8AB
:1030E000F083D1E90B364F6A4C6B8D8A33433C43F6
:1030F0000E6923430C6A43EA85438D6933430968AB
:1031000023432B4362E0FFE7CC69B4F1000918D0F8
:10311000D1E90B484F6A4E6BB1F814C044EA080479
:103120003E430F683443CE6844EA8C44344344EA57
:1031300009041C4303683C431443AA425C61CBD19D
:10314000CDE7D1E90B464F6A4D6BB1F814C034435B
:103150003D4300682C43096844EA8C441C430C43FB
:1031600014434461BBE70B6AABB303688C68DC6152
:10317000CC69E4B1D1E90B38D1F824C04E6B8F8A09
:1031800043EA080346EA0C0633430E6A43EA8743E0
:10319000D1E9037C43EA0C0333438E693B43234369
:1031A000046833431343AA42636195D197E7D1E999
:1031B0000B364F6A4C6B8D8A33433C430E69234375
:1031C0000C6A43EA854389693343234300680B4310
:1031D0001343436183E7FFE7CC6984B1D1E90B383E
:1031E0004F6A4E6BB1F814C043EA08033E433343C1
:1031F000CE6843EA8C43334323430468D2E74C6AE6
:10320000002C9DD0D1E90B368F8A4D6B016833437A
:1032100025432B4343EA8740104348615FE710B5DD
:10322000006C00218163C16290F84110082905D02B
:10323000012180F84110FDF742FE10BD0268022115
:10324000D16001680A6842F400320A6000680168CF
:1032500041F00201016010BD2DE9F041984616468B
:103260000F460446069D08E0681C06D0FDF7DEFC0C
:10327000A0EB0800A8420AD84DB120688068384009
:1032800000D00120B042EFD10020BDE8F081042041
:1032900084F84100606C40F0010060640120F4E7B4
:1032A0000148FDF70FBE0000740000242DE9F0472F
:1032B000454D044689464FF0000A2868C043800700
:1032C0000AD0414E283E306820F080603060FDF723
:1032D000ADFC0746B04608E00120BDE8F08700BF1E
:1032E000FDF7A4FCC01B022867D8D8F80000000135
:1032F000F6D4206829684FF4FE0721F47C313E02A1
:1033000041EA00302860207AA389B4F804C0400262
:103310002D4D2D495B1E227CACF1010C1035091D91
:10332000A0F5007080B2521ECCF3080C07EA0343EC
:1033300040EA0C00184306EA02621043286008685D
:10334000626920F0C000104308600A68A06922F09A
:10335000200202430A60281D0A6822F010020A6057
:1033600002684FF6F873E4699A4342EAC4020260C5
:103370000868B9F1000F40F010020A6011D0086827
:10338000B9F1010F11D040F400100860D8F8000026
:10339000444640F08060C8F80000FDF747FC054651
:1033A0000DE0086840F40020EFE740F48010ECE7FF
:1033B000FDF73CFC401B022801D903208DE7206863
:1033C0000001F5D5504688E7284402582DE9F0471A
:1033D000454D044689464FF0000A2868C0438007DF
:1033E0000AD0414E283E306820F080503060FDF712
:1033F0001DFC0746B04608E00120BDE8F08700BF8D
:10340000FDF714FCC01B022867D8D8F80000800024
:10341000F6D4208829684FF4FE0721F07C713E0223
:1034200041EA00502860207AA389B4F804C0400221
:103430002D4D2D495B1E227CACF1010C1835091D68
:10344000A0F5007080B2521ECCF3080C07EA0343CB
:1034500040EA0C00184306EA02621043286008683C
:10346000626920F44060104308600A68A06922F491
:10347000007202430A60281D0A6822F480720A6002
:1034800002684FF6F873E4699A4342EAC4020260A4
:103490000868B9F1000F40F480720A6011D0086822
:1034A000B9F1010F11D040F080700860D8F8000029
:1034B000444640F08050C8F80000FDF7B7FB0546D1
:1034C0000DE0086840F48000EFE740F40000ECE70E
:1034D000FDF7ACFB401B022801D903208DE72068D3
:1034E0008000F5D5504688E7284402587047FDF71C
:1034F000B7BB000070B59CB04C216846FCF732FFAA
:10350000202113A8FCF72EFF0220FDF761FC2D49B6
:1035100000242D480A6822F001020A600A68026845
:1035200042F440420260026802F440421B92026888
:103530009204FCD5254A136843F002031360126815
:1035400002F002021B92026842F4404202600268EA
:103550000A6842F001020A60096801F001011B914A
:1035600001688904FCD50DF1280C02200990052181
:10357000C0228CE80700C3030F9008250D90012698
:103580000E90CDE91054CDE9006368461294FEF721
:103590001FFF08B172B6FEE740201A903F210301D9
:1035A000CDE916500322CDE9180313AB13A883E825
:1035B00016000421FEF7FCFC002801D072B6FEE7DD
:1035C0001CB070BD2C04005818480258F44402582E
:1035D0002C48F0B52C4A016841F470010160106874
:1035E00000F00F00072804D2106820F00F00C01D63
:1035F000106026490020254C10340B68244D43F000
:1036000001030B6020600B682B400B60136803F014
:103610000F03072B04D9136823F00F03DB1D13607E
:103620001A4C1C4A18341C4B261D371D2060174CA1
:103630001A4D28343060261D3860371D23603B1D2D
:1036400035601C1D3A60251D2E1D1860331D22603B
:103650002860326018600A680C4B114C22F48022FA
:1036600060330A60186020686FF30F00B0F1005FEC
:1036700003D20C490120C1F8080143F2D2000A49E3
:103680000860F0BD88ED00E00020005200440258C0
:103690007FEDF6EA80020101000202020000FF0154
:1036A0000010005C008000510040005210B5FDF792
:1036B0002BF8034901484860002010BD6D08000840
:1036C00020000024274D052794B0286880470A2051
:1036D000FDF774F9FCF7D8FF0126E8464FF6FF79AD
:1036E000696801208847002495F8340006FA04F13F
:1036F000084231D0E868B0F5B87F2FDA296AB1F511
:10370000E07F2BDA002801DC002927DDA0F1870209
:10371000772A04D23A2902DAFCF7B6FF09E000283A
:1037200001DC002905DD104B4FF47F021A60FCF725
:10373000F9FE58F834004146484503D0A0F57062C0
:10374000FF3A0BD105EB840001EBC402C36848F8D3
:103750003430006A506001E048F83490641CBC4288
:10376000C2DBBDE720000024180000240A4890F8BE
:1037700034100A0604D521F0800180F8341006E0E8
:103780000021C1614FF6FF72C2600262016390F8CE
:10379000340000F0800070472000002430B5416EF6
:1037A000B9B101680D4B03F108048A688968C2F356
:1037B0004262490F5D5C615C2D01B5FBF1F1A0F83F
:1037C0006A10995CA25C0901B1FBF2F1A0F86810E3
:1037D00030BD0121A0F86A10F8E70000804300081E
:1037E00090F82810090706D50168836B4A6822F40F
:1037F00000421A434A6090F82810C90706D00168B1
:10380000C36A4A6822F400321A434A6090F82810CA
:10381000890706D50168036B4A6822F480321A438F
:103820004A6090F82810490706D50168436B4A683A
:1038300022F480221A434A6090F82810C90606D55F
:103840000168C36B8A6822F480521A438A6090F838
:103850002810890606D50168036C8A6822F4005294
:103860001A438A6090F82810490611D50168436C04
:103870004A6822F480121A434A60416CB1F5801FF5
:1038800006D10168836C4A6822F4C0021A434A6078
:1038900090F82810090606D50168C26C486820F423
:1038A00000201043486070472DE9F8430025044686
:1038B000C0F89050FDF7BAF98046206820266FF0D6
:1038C0007E470068000713D5002243463104204696
:1038D000009700F03FFA58B1216851E8000F20F03E
:1038E000800041E80002002AF6D1C4F8886021E097
:1038F00020680068400722D5002243464FF480012B
:103900002046009700F026FAC8B1206850E8001F52
:1039100021F4907140E80012002AF6D120680830A6
:1039200050E8001F21F0010140E80012002AF5D103
:10393000C4F88C60032084F88450BDE8F883C4F890
:103940008860C4F88C60E5662567002084F88450A0
:10395000F3E7000010B5026852E8001F21F49071EF
:1039600042E80013002BF6D10E4B0268083252E8F1
:10397000001F194042E80014002CF6D1C16E012945
:1039800008D1026852E8001F21F0100142E800133C
:10399000002BF6D100212022C0F88C20C16641679F
:1039A00010BD0000FEFFFFEF2DE9F04304468068E4
:1039B000D84E87B0D84B2168D4E90427D4F81CC06E
:1039C00010430A68002547EA0C0738433240024397
:1039D0000A602068E268416821F440511143416067
:1039E0002268A1699A4201D0206A01439768DFF8F2
:1039F0002CC3CB4ECB4807EA0C070F4397602168D6
:103A0000676ACA6A22F00F023A43CA622268B24267
:103A10000ED1006800F03800182873D047DCB8B326
:103A2000082879D010286FD178E028287ED17BE053
:103A3000BD498A4209D1006800F00700062875D206
:103A4000DFE800F0546A6C6E7072B8498A4209D19E
:103A5000006800F00700062868D2DFE800F0475D44
:103A60005F616365B2498A4209D1006800F00700CE
:103A700006285BD2DFE800F03A5052545658AD4960
:103A80008A420BD1006800F0070006284ED200E001
:103A900010E0DFE800F02B4143454749A6498A4240
:103AA0000AD1006800F03800182839D0B7DD202886
:103AB000BBD13CE001203AE0A0498A4209D100682C
:103AC00000F00700062831D2DFE800F01026282A8F
:103AD0002C2E9B498A420BD1006800F00700062873
:103AE00024D2DFE800F003191B1D1F2100201EE077
:103AF0009A421BD18B48001D006800F00700062881
:103B000014D202E00CE007E010E0DFE800F003056B
:103B100007090B0D02200AE0042008E0082006E057
:103B2000102004E0202002E0402000E080208549B1
:103B3000DFF814829A42854A4FF400434FEA211776
:103B40004FF000064ED110281AD006DC022809D00A
:103B500004280BD008287CD10DE020283ED0402836
:103B600077D13DE0FDF7F8FB014610E06846FDF730
:103B700005FC01990BE003A8FDF7A2FC049906E0FF
:103B80001068800605D51068C0F3C100C140002947
:103B900070D0606A676838F8102007EB4703B1FB04
:103BA000F2F0834255D8B0EB073F52D800230846C5
:103BB0001946FCF78DFB02467808130E120243EA01
:103BC000012110183A4671410023FCF781FB604A3D
:103BD000A0F5407191423CD821688FE03946D8E782
:103BE0001946D6E7D4F81CC04FF6EF799C4546D16C
:103BF000082819D005DC58B101280CD0042875D14B
:103C00000DE0102815D0202835D040286ED134E0A2
:103C1000FEF71EFB01E0FEF72DFB014610E06846B3
:103C2000FDF7ACFB01990BE003A8FDF749FC0499F3
:103C300006E01068800604D51068C0F3C100C140DA
:103C4000C1B1636A606838F81330B1FBF3F1490021
:103C500000E04BE001EB5001B1FBF0F0A0F11001EE
:103C6000494543D84FF6F0732168C0F3420218402B
:103C7000104343E043E03946E3E71946E1E708280B
:103C800019D005DC58B101280CD004282ED10DE044
:103C9000102815D020282BD0402827D12AE0FEF765
:103CA000D7FA01E0FEF7E6FA014610E06846FDF7B4
:103CB00065FB01990BE003A8FDF702FC049906E0FF
:103CC0001068800604D51068C0F3C100C140B1B1CE
:103CD000636A606838F81330B1FBF3F101EB50010F
:103CE000B1FBF0F0A0F11001494505D9012506E02E
:103CF0003946EDE71946EBE7216880B2C86001203C
:103D0000A4F86A00A4F8680028466667A66707B0AA
:103D1000BDE8F083F369FFCF000C0058FFF4FF11FA
:103D20000010014054440258004400400048004044
:103D3000004C00400050004000140140007800405A
:103D4000007C00400090D003684300080044025803
:103D5000FFFC0F002DE9F047994617460D46044633
:103D6000089E4FF0000833E0701C31D0FCF75EFF76
:103D7000A0EB0900B04218D8BEB12068016849071D
:103D800026D5802D24D0402D22D0C169C9430907F2
:103D90000DD4082505622046FFF7DCFDC4F89050DD
:103DA000012084F88480BDE8F0870320FBE7C06928
:103DB000C04300050CD421684FF40060086220461F
:103DC000FFF7C8FD2021C4F8901084F88480ECE748
:103DD0002068C06935EA000004D00020B842C3D092
:103DE0000020E0E70120F9E7FEE700000FB4054BF3
:103DF00010B503A9044A029800F028F810BC5DF839
:103E000014FB00007141000870000024090700281D
:103E10004FEA116104DB00F1E02080F800147047E4
:103E200000F00F0000F1E02080F8141D704702E060
:103E300008C8121F08C1002AFAD170477047002035
:103E400001E001C1121F002AFBD170472DE9FF4F8D
:103E50008DB09B460F460446002606E025280BD071
:103E60005A460F999047641C761C20780028F5D19B
:103E700011B03046BDE8F08F0025A84601229849D0
:103E800000E0054314F8013F203B02FA03F008422A
:103E9000F7D120782E2817D114F8010F45F004052A
:103EA0002A280ED06FF02F022078A0F130010929C6
:103EB0000AD808EB880102EB410100EB0108641C01
:103EC000F2E757F8048B641C20786C280DD004DCD2
:103ED0004C2812D06A2811D104E074280DD07A2819
:103EE0000CD10AE045F4001507E0617845F480152F
:103EF000814202D1641C05F58015641C2278692A70
:103F000045D008DC002AB3D0582A69D0632A10D0E3
:103F1000642A08D13BE0702A67D0732A13D0752A2F
:103F20005CD0782A5CD010465A460F999047761C90
:103F3000D3E017F8040B8DF8000000208DF8010085
:103F4000E946012003E057F8049B4FF0FF30690772
:103F50004FF0000501D40AE06D1C45450DDA85429D
:103F6000FADB19F805100029F6D106E06D1C854230
:103F7000FCDB19F805100029F8D12E4404E019F8EB
:103F8000010B5A460F9990476D1EF8D2A5E00A2002
:103F90000021CDE90801C5F3025002280DD001CF60
:103FA000C117031E71F100030DDA4FF0000CD0EBC6
:103FB0000C006CEB01012D2308E0FF1D27F0070723
:103FC000F7E80201EDE72B0504D52B238DF8283007
:103FD00001233BE0EB0739D02023F7E70A2000E07C
:103FE00010200021CDE9080107E01020002145F054
:103FF0000405CDE908014FF00808C5F30250022876
:104000000FD001CF00214FF0000A2B071FD5702AD7
:104010000DD0DDE908C38CF0100C5CEA030C0CD069
:1040200015E0FF1D27F00707F7E80201EBE7402244
:104030008DF828204FF0010A0BE050EA010306D06A
:1040400030238DF828308DF8292002239A46582AEB
:1040500004D024A20DF120090B9209E026A2F9E771
:10406000DDE90823FCF734F90B9B9B5C09F8013D63
:1040700050EA0102F4D1ADEB090020300890680746
:1040800001D44FF001080899884502DDA8EB010032
:1040900000E000208046002506E00AA85A46405D60
:1040A0000F9990476D1C761C5545F6DB04E03020D7
:1040B0005A460F999047761CB8F10001A8F1010803
:1040C000F5DC05E019F8010B5A460F999047761C6C
:1040D0000899481E08900029F4DC641CC5E600001D
:1040E00009280100303132333435363738396162CE
:1040F0006364656600000000303132333435363792
:1041000038394142434445460000000010B504469A
:104110000420FEF71EFC0148046010BD6C00002462
:1041200070B5002405464FF47A7603E0304600F07F
:1041300005F8641CAC42F9D370BD00000B490022A5
:1041400070B54FF0E024096865694843A369A16927
:104150009942FCD002D2A3EB010302E0A5EB0106D9
:1041600033441A440B468242F1D370BD6C000024E4
:1041700013B5044801224FF6FF736946FEF7F0FCC1
:1041800000981CBDC0000024FCF772FDFFF7B2F9D7
:10419000FEF772FEFEF71CFFFEF736FF4FF4F070DD
:1041A000FFF7B4FF00F07CF8FFF78CFA0A4C4FF4ED
:1041B00000564FF4FA75314600222046FCF72BFDDD
:1041C0002846FCF7FBFB012231462046FCF723FD85
:1041D0002846FCF7F3FBEEE700080258F0B58FB075
:1041E000144638220F46134905466846FCF7A1F8E5
:1041F000280241F288360A9401903CB10E483246BA
:104200006946FCF719FE324639460DE00121324677
:1042100001950803039008480A916946FCF70CFED3
:10422000002032460EA90E900348FDF731F80FB07A
:10423000F0BD0000C0B4000874000024F0B58FB0D9
:10424000144638220F46144905466846FCF771F8B3
:10425000280241F288360A9401903CB10F48324658
:104260006946FCF7E9FD324639460FE00122019527
:104270001003039001030948CDE90912324669464B
:10428000FCF7DAFD002032460EA90E900348FCF739
:10429000FFFF0FB0F0BD0000F8B400087400002468
:1042A00010B52D4C012286B011462046FCF7B3FC18
:1042B000012220461021FCF7AEFC002220460821F6
:1042C000FCF7A9FC0A20FFF72BFF0122204608215A
:1042D000FCF7A1FC3220FFF723FF002469460122EE
:1042E00000941120FFF77AFF6420FFF719FF1BA04D
:1042F000012201A9006801903A20FFF76FFF18A082
:10430000012202A9006802905320FFF767FF0120F5
:10431000FFF706FF01220394512003A9FFF75EFF78
:104320000120FFF7FDFE00220494292004A9FFF7D5
:1043300055FF0120FFF7F4FE0AA0012205A900683D
:1043400005905120FFF74AFF0020FCF769F80A208A
:10435000FFF7E6FE06B010BD00040258550000004D
:1043600020000000FF000000010002000400060021
:1043700008000A000C00100020004000800000012E
:104380000101010307010000080402040801010102
:1043900000000000010203040102030406070809EB
:1043A000000000000000000000000000000000000D
:1043B0003F400000000000000000300040003000DE
:1043C0004000000009000BC03D000BC03D0009008B
:1043D00018C024407FE0224031800000180024C033
:1043E0001B000D803240018003801C4027401C8050
:1043F00007400040100060000000000000000000C6
:104400000000000000001F802040402000004020ED
:1044100020401F8000000000090006001F800600E9
:1044200009000000040004003F80040004000000B4
:104430000010006000000000000000000400040004
:104440000400040004000000000000400000000020
:1044500000000000002001C00600380040000000FD
:104460001F802040204020401F800000000010409E
:104470003FC000400000000018C0214022402440FE
:104480001840000010802040244024401B80000081
:1044900002000D0011003FC0014000003C8024409C
:1044A00024402440238000001F80244024403440C6
:1044B000038000003000200027C0380020000000EA
:1044C0001B802440244024401B8000001C0022C08C
:1044D000224022401F800000000000000840000031
:1044E0000000000000000000046000000000000068
:1044F000000004000A00110020804040090009006B
:10450000090009000900000000004040208011005F
:104510000A000400180020002340240018000000B6
:104520001F802040274029401F400000004007C056
:1045300039000F0001C0004020403FC0244024400B
:104540001B8000001F802040204020403080000061
:1045500020403FC0204020401F80000020403FC03E
:1045600024402E4030C0000020403FC024402E0098
:10457000300000000F0010802040224033800200F5
:1045800020403FC0040004003FC0204020402040A5
:104590003FC02040204000000060202020203FC07D
:1045A0002000200020403FC024400B0030C02040AD
:1045B00020403FC020400040004000C03FC03C00C1
:1045C00003C03C003FC0000020403FC00C4023001F
:1045D0003FC020001F802040204020401F8000005E
:1045E00020403FC024402400180000001F802140CC
:1045F000214020E01FA0000020403FC024402600B2
:1046000019C0004018C024402440224031800000DE
:10461000300020403FC020403000000020003F809C
:10462000004000403F80200020003E0001C0070005
:1046300038002000380007C03C0007C038000000E8
:10464000204039C0060039C020400000200038401A
:1046500007C0384020000000304021C026403840CC
:1046600020C00000000000007FE04020402000004B
:10467000000070000C00038000400000000040209B
:1046800040207FE0000000000000200040002000EB
:1046900000000000001000100010001000100010BA
:1046A0000000000040000000000000000000028048
:1046B0000540054003C0004020003FC004400440C6
:1046C0000380000000000380044004400640000016
:1046D00000000380044024403FC0004000000380ED
:1046E0000540054003400000000004401FC0244076
:1046F00024402000000002E0055005500650042030
:1047000020403FC00440040003C0004000000440BB
:1047100027C000400000000000100010041027E037
:104720000000000020403FC00140070004C00440DA
:10473000204020403FC000400040000007C004006F
:1047400007C0040003C00000044007C00440040088
:1047500003C00040000003800440044003800000C8
:10476000041007F0045004400380000000000380A0
:104770000440045007F00010044007C00240040049
:1047800004000000000006400540054004C0000091
:10479000000004001F800440004000000400078067
:1047A0000040044007C000400400070004C001802E
:1047B00006000400060001C0070001C0060000005A
:1047C000044006C0010006C00440000004100710A9
:1047D00004E00180060004000000044005C006401B
:1047E000044000000000000004007BE040200000C6
:1047F000000000000000FFF000000000000040206A
:104800007BE0040000000000400080004000200029
:104810002000400000000000000000000000000038
:10482000000000000000000000001FCC000C000091
:1048300000000000000008003000600008003000A8
:1048400060000000022003FC1E20022003FC1E204A
:104850000220000000000E1811043FFF10840C78A5
:10486000000000000F0010840F3800C00778188483
:104870000078000000780F8410C411240E9800E422
:1048800000840008080068007000000000000000BC
:104890000000000000000000000007E018182004DD
:1048A00040020000000040022004181807E0000049
:1048B000000000000240024001800FF00180024031
:1048C000024000000080008000800FF8008000801F
:1048D000008000000001000D000E0000000000003C
:1048E0000000000000000080008000800080008048
:1048F000008000800000000C000C000000000000A0
:1049000000000000000000060018006001800600A2
:1049100018002000000007F0080810041004080820
:1049200007F000000000080408041FFC0004000455
:104930000000000000000E0C10141024104411841C
:104940000E0C000000000C18100411041104128851
:104950000C700000000000E00320042408241FFC69
:104960000024000000001F98108411041104108816
:1049700010700000000007F0088811041104188866
:104980000070000000001C00100010FC13001C0050
:104990001000000000000E381144108410841144EF
:1049A0000E38000000000700088C104410440888EE
:1049B00007F00000000000000000030C030C0000E2
:1049C00000000000000000000001010600000000DF
:1049D00000000000000000800140022004100808D0
:1049E00010040000022002200220022002200220E7
:1049F00002200000000010040808041002200140FA
:104A00000080000000000E001200100C106C1080DE
:104A10000F00000003E00C1813E4142417C4082846
:104A200007D000000004003C03C41C40074000E421
:104A3000001C000410041FFC1104110411040E8852
:104A40000070000003E00C1810041004100410089B
:104A50001C10000010041FFC1004100410040808AF
:104A600007F0000010041FFC1104110417C4100407
:104A70000818000010041FFC1104110017C01000DA
:104A80000800000003E00C181004100410441C7807
:104A90000040000010041FFC10840080008010847F
:104AA0001FFC10040000100410041FFC100410046C
:104AB0000000000000030001100110011FFE1000A3
:104AC0001000000010041FFC110403801464181C63
:104AD0001004000010041FFC100400040004000473
:104AE000000C000010041FFC1F0000FC1F001FFC36
:104AF0001004000010041FFC0C04030000E0101858
:104B00001FFC100007F00808100410041004080827
:104B100007F0000010041FFC10841080108010802B
:104B20000F00000007F0081810241024101C080AB9
:104B300007F2000010041FFC1104110011C0113015
:104B40000E0C000400000E1C11041084108410448C
:104B50001C3800001800100010041FFC1004100086
:104B60001800000010001FF81004000400041004D6
:104B70001FF8100010001E0011E0001C00701380D0
:104B80001C0010001FC0103C00E01F0000E0103CA3
:104B90001FC000001004180C163401C001C01634E8
:104BA000180C100410001C00130400FC13041C005B
:104BB000100000000804101C1064108413041C046E
:104BC000101800000000000000007FFE40024002BC
:104BD00040020000000030000C0003800060001C58
:104BE0000003000000004002400240027FFE00007F
:104BF00000000000000000002000400040004000D5
:104C0000200000000001000100010001000100017E
:104C100000010001000040004000200000000000F2
:104C200000000000000000980124014401440144F8
:104C300000FC000410001FFC00880104010400882F
:104C400000700000000000700088010401040104ED
:104C500000880000000000700088010401041108B1
:104C60001FFC0004000000F8014401440144014419
:104C700000C800000000010401040FFC110411042D
:104C800011001800000000D601290129012901C9DD
:104C90000106000010041FFC008401000100010453
:104CA00000FC000400000104190419FC00040004C5
:104CB000000000000000000300010101190119FEBD
:104CC0000000000010041FFC0024004001B4010C8F
:104CD000010400000000100410041FFC0004000484
:104CE00000000000010401FC0104010001FC0104BA
:104CF000010000FC010401FC00840100010001042A
:104D000000FC0004000000F8010401040104010497
:104D100000F80000010101FF008501040104008882
:104D2000007000000000007000880104010401050B
:104D300001FF00010104010401FC008401040100E1
:104D400001800000000000CC012401240124012482
:104D50000198000000000100010007F801040104AF
:104D600000000000010001F8000400040004010834
:104D700001FC0004010001800170000C00100160C2
:104D80000180010001F0010C003001C00030010C75
:104D900001F0010000000104018C00740170018C1D
:104DA00001040000010101810171000E0018016081
:104DB0000180010000000184010C013401440184E0
:104DC000010C0000000000000000000001003EFC9B
:104DD000400240020000000000000000FFFF000051
:104DE000000000000000400240023EFC0100000004
:104DF00000000000000060008000800040004000D3
:104E00002000200000000000000000000000000062
:104E10000000000000000000000000000000000092
:104E20000000000000000000000000000000000082
:104E3000000000000000000F80380FFE380F80389F
:104E40000000000000000000000000000000000062
:104E500000000100000600000C00003800003100D6
:104E6000000600000C0000380000300000000000C8
:104E70000000000061800067F807F9800061800091
:104E800061800061800061800067F807F98000613F
:104E90008000000000000000000001C0E003E0F01E
:104EA0000630080418081FFFFE040E080787F003E9
:104EB00081E000000000000001F000060C00040486
:104EC00008060C7001F9C0000E00003BE000EC1871
:104ED000070808040C180003E00000000001E000CF
:104EE00007F003F818041C0804170807E1D003C0F2
:104EF000E00023B0003C0800200800001000000083
:104F00000000000100003100003200001C00000021
:104F10000000000000000000000000000000000091
:104F20000000000000000000000000000000000081
:104F3000000000007F0001FFC00780F00C00181087
:104F40000004200002000000000000200002100009
:104F5000040C00180780F001FFC0007F0000000073
:104F60000000000000000000000000000000000041
:104F70004200006600006600003C0000180003FFCD
:104F8000C0001800003C00006600006600004200FF
:104F900000000000080000080000080000080000F1
:104FA000080001FFC0000800000800000800000819
:104FB0000000080000000000000100003100003285
:104FC00000001C00000000000000000000000000C5
:104FD00000000000000000000000000008000008C1
:104FE0000000080000080000080000080000080099
:104FF0000008000008000008000000000000000099
:1050000000000000380000380000380000000000F8
:105010000000000000000000000000000000000090
:1050200000000000000600001C000070000180006D
:105030000E0000380000C0000700001C0000300017
:1050400000000000000000007F8001FFE00380708E
:105050000600180400080400080600180380700108
:10506000FFE0007F80000000000000000000010061
:105070000801000801000803FFF807FFF800000816
:10508000000008000008000000000000000000010F
:10509000C03802C05804009804011804021804041F
:1050A00018061C1803F81801E0F8000000000000C2
:1050B00000000001C0E003C0F00400080408080478
:1050C000080806180803F41801E7F00001E00000E2
:1050D00000000000000000000300000D00001100AF
:1050E00000610000810803010807FFF80FFFF800C6
:1050F00001080001080000000000000000E007FCBB
:10510000D006080806100806100806100806183809
:10511000060FF00607C000000000000000000000BD
:105120003F8001FFE00384300208180410080410D7
:1051300008041008071810030FF00007C000000053
:1051400000000000000003C0000700000600000689
:1051500000F80607F806180006E000070000060041
:105160000000000000000001E1E003F7F006341049
:10517000041808041808040C08040C080616180380
:10518000F3F001C1E000000000000000F80003FCA3
:10519000300306380402080402080402080404105C
:1051A0000308F001FFC0007F0000000000000000C5
:1051B00000000000000000000000000070380070D7
:1051C00038007038000000000000000000000000FF
:1051D00000000000000000000000000000000000CF
:1051E000301A00301C000000000000000000000029
:1051F0000000000000000000000000080000140093
:1052000000220000410000808001004002002004D4
:10521000001008000800000000000000210000212C
:1052200000002100002100002100002100002100D9
:10523000002100002100002100000000000000000B
:105240000000080008040010020020010040008057
:10525000800041000022000014000008000000004F
:1052600000000003C00004C000040000080038086B
:105270000F380808380810000C300007E00003C0A1
:1052800000000000000000003F8000FFE00380708D
:10529000020F1006708804C088048308047F880207
:1052A000C09003012000FE4000000800001800012B
:1052B000F8003E0801C20007020007E20000FE00FD
:1052C000001FC80001F800003800000804000807AB
:1052D000FFF807FFF8040808040808040808040891
:1052E0000806180803F41801E7F00001E0000000C8
:1052F000000000003F8001FFE003807002001804FE
:1053000000080400080400080400100600200780BC
:10531000C000000004000807FFF807FFF8040008B9
:105320000400080400080400180200100380700143
:10533000FFE0007F8000000004000807FFF807FF7F
:10534000F8040808040808040808040808043E08CB
:1053500004000806001801006000000004000807AF
:10536000FFF807FFF8040808040800040800040810
:1053700000043E000600000600000180000000005E
:10538000000000003F8001FFE00380700600180469
:1053900000080402080402080203F00783F0000278
:1053A0000000020004000807FFF807FFF8040808DF
:1053B00000080000080000080000080004080807B2
:1053C000FFF807FFF80400080000000000000400D8
:1053D0000804000804000807FFF807FFF8040008A5
:1053E00004000804000800000000000000000000A5
:1053F0000006000007000001040001040001040091
:105400000307FFFE07FFFC04000004000004000087
:1054100004000807FFF807FFF8040C080018000054
:105420003E0004C7800503C80600F80400380400E5
:105430001800000804000807FFF807FFF804000838
:105440000000080000080000080000080000080034
:10545000001800006000000004000807FFF8078043
:105460000807FC00007FC00003F80007C0007800B8
:1054700007800807FFF807FFF80400080400080782
:10548000FFF807000803C00000E000003800001E1D
:10549000000007000001C00400F007FFF80400004E
:1054A000000000007F8001FFE00380700600180408
:1054B000000804000806001803003001FFE0007F28
:1054C0008000000004000807FFF807FFF804040844
:1054D000040400040400040400040400060C000397
:1054E000F80001F000000000000000007F8001FFD4
:1054F000E00380700600880400880400C806003CB1
:1055000003003E01FFE6007F84000000040008075E
:10551000FFF807FFF8040808040800040C00040F53
:1055200000040BC00610F003F03801E0080000088A
:1055300000000001E0F803F0300630100418080401
:105540001808040C08040C080206180207F007816A
:10555000E0000000018000060000040000040000DC
:1055600004000807FFF807FFF8040008040000041F
:10557000000006000001800004000007FFE007FFB4
:10558000F0040018000008000008000008000008EF
:1055900000000804001007FFE004000004000006FB
:1055A000000007E00007FE00041FE00001F8000013
:1055B000380001E0043E0007C000060000040000BF
:1055C00004000007E00007FFC0041FF80007C00741
:1055D000F80007FF80043FF80007C004F800070048
:1055E0000004000000000004000806001807C0784E
:1055F00005F1C8003E00001F800463E80780F8063C
:1056000000180400080000000400000600000780E5
:105610000007E008047C08001FF80007F8001808DD
:1056200004E008070000060000040000000000017C
:1056300000080600380400F80403E8040F08047C9E
:105640000805F00807C00807001804006000000003
:105650000000000000000000000000000000003F0B
:10566000FFFE200002200002200002200002200095
:105670000200000000000000000008000007000019
:1056800000C0000038000006000001C0000030002B
:10569000000E0000010000000000000000002000DB
:1056A000022000022000022000022000023FFFFE34
:1056B00000000000000000000000000000000000EA
:1056C0000000000000080000100000300000200072
:1056D0000030000010000008000000000000000082
:1056E00000000100000100000100000100000100B5
:1056F00000010000010000010000010000010000A5
:105700000100000100000000000000000020000077
:105710002000001000001000000000000000000049
:1057200000000000000000000000000000F0001970
:10573000F8001B1800220800260800240800241086
:10574000003FF8001FF800000800001800000004E7
:10575000000007FFF80FFFF00018180010080020E5
:1057600008002008003018001FF0000FC0000000E3
:105770000000000007C0001FF000183000200800E3
:105780002008002008003C08001C100000600000F9
:10579000000000000000000007C0001FF0003818E3
:1057A00000200800200800200804101007FFF80F50
:1057B000FFF00000100000000000000000000007E3
:1057C000C0001FF00012300022180022080022083A
:1057D000003208001E10000E200000000000000033
:1057E000200000200800200801FFF803FFF8062031
:1057F000080420080420080720000300000000001F
:1058000000000000000E000E6E001FF30031B1001A
:1058100020B10020B1003191001F13002E1E002086
:105820000E00300000000004000807FFF80FFFF82A
:10583000001008002000002000002008003FF800B1
:105840001FF8000008000000000000000000002019
:1058500008002008002008063FF8063FF80000086E
:105860000000080000080000000000000000000028
:1058700000000000030000030020010020010020C0
:1058800003063FFE063FFC00000000000000000091
:1058900000000004000807FFF80FFFF8000188006F
:1058A0000300002FC00038F8002038002008000056
:1058B00008000000000000000000040008040008C8
:1058C00004000807FFF80FFFF800000800000800B8
:1058D0000008000000000000002008003FF8003F22
:1058E000F8001008002000003FF8003FF800100802
:1058F000002000003FF8003FF80000080000000012
:105900002008003FF8003FF80010080010000020B9
:1059100000002008003FF8001FF800000800000009
:105920000000000007C0000FF00018300030080031
:105930002008002008003008001830000FF0000791
:10594000C0000000000000002001003FFF003FFFFA
:105950000010110020090020080020080030380045
:105960001FF0000FC00000000000000007C0001F73
:10597000F00038180020080020080020090010114D
:10598000001FFF003FFF0000010000000020080092
:105990002008002008003FF8003FF8000808001029
:1059A0000800200800200000300000300000000047
:1059B000000000000000000C78001E1800330800F2
:1059C00023080021080021880021980030F00038C9
:1059D0006000000000000000200000200000200007
:1059E00000FFF003FFF80020080020080020080056
:1059F0000030000000000000000000002000003F18
:105A0000F0007FF8000018000008000008002010D7
:105A1000003FF8007FF000001000000000000000D0
:105A20002000003000003C00003F800023F0000018
:105A300078000070002380003C000030000020004F
:105A4000002000003C00003FE00023F80000E000E0
:105A50002700003E00003FE00021F80001E0003E8A
:105A60000000200000000000200800200800383856
:105A7000003E680027800003C8002CF8003838007A
:105A80002018002008000000000000002000003066
:105A900003003C01003F830023EC000070002380E2
:105AA000003C00002000002000000000000000007A
:105AB00000000038080020380020F80023E8002FFC
:105AC00088003E0800380800201800007000000020
:105AD00000000000000000000000000000000000C6
